{
  "_format": "hh-sol-artifact-1",
  "contractName": "LendingFactory",
  "sourceName": "contracts/LendingFactory.sol",
  "abi": [
    {
      "inputs": [],
      "stateMutability": "nonpayable",
      "type": "constructor"
    },
    {
      "anonymous": false,
      "inputs": [
        {
          "indexed": false,
          "internalType": "address payable",
          "name": "lender",
          "type": "address"
        },
        {
          "indexed": false,
          "internalType": "uint256",
          "name": "requestNumber",
          "type": "uint256"
        },
        {
          "indexed": false,
          "internalType": "uint256",
          "name": "offerNumber",
          "type": "uint256"
        },
        {
          "indexed": false,
          "internalType": "uint256",
          "name": "offerTokenAmount",
          "type": "uint256"
        },
        {
          "indexed": false,
          "internalType": "uint256",
          "name": "offerRate",
          "type": "uint256"
        },
        {
          "indexed": false,
          "internalType": "uint256",
          "name": "offerAmountOfTime",
          "type": "uint256"
        },
        {
          "indexed": false,
          "internalType": "uint256",
          "name": "offerPaymenTime",
          "type": "uint256"
        }
      ],
      "name": "LenderMakeOffer",
      "type": "event"
    },
    {
      "anonymous": false,
      "inputs": [
        {
          "indexed": true,
          "internalType": "address",
          "name": "previousOwner",
          "type": "address"
        },
        {
          "indexed": true,
          "internalType": "address",
          "name": "newOwner",
          "type": "address"
        }
      ],
      "name": "OwnershipTransferred",
      "type": "event"
    },
    {
      "anonymous": false,
      "inputs": [
        {
          "indexed": false,
          "internalType": "address",
          "name": "_address",
          "type": "address"
        }
      ],
      "name": "RegisterLending",
      "type": "event"
    },
    {
      "anonymous": false,
      "inputs": [
        {
          "indexed": false,
          "internalType": "address",
          "name": "NFTAddress",
          "type": "address"
        }
      ],
      "name": "RegisterNFT",
      "type": "event"
    },
    {
      "anonymous": false,
      "inputs": [
        {
          "indexed": false,
          "internalType": "address",
          "name": "NFTAddress",
          "type": "address"
        }
      ],
      "name": "UnRegisterNFT",
      "type": "event"
    },
    {
      "anonymous": false,
      "inputs": [
        {
          "indexed": false,
          "internalType": "uint256",
          "name": "requestNumber",
          "type": "uint256"
        },
        {
          "indexed": false,
          "internalType": "uint256",
          "name": "offerNumber",
          "type": "uint256"
        }
      ],
      "name": "VendorAcceptOffer",
      "type": "event"
    },
    {
      "anonymous": false,
      "inputs": [
        {
          "indexed": false,
          "internalType": "address",
          "name": "vendor",
          "type": "address"
        },
        {
          "indexed": false,
          "internalType": "contract ERC721",
          "name": "NFTAddress",
          "type": "address"
        },
        {
          "indexed": false,
          "internalType": "uint256",
          "name": "tokenId",
          "type": "uint256"
        },
        {
          "indexed": false,
          "internalType": "uint256",
          "name": "requestNumber",
          "type": "uint256"
        }
      ],
      "name": "VendorMakeRequest",
      "type": "event"
    },
    {
      "anonymous": false,
      "inputs": [
        {
          "indexed": false,
          "internalType": "uint256",
          "name": "requestNumber",
          "type": "uint256"
        },
        {
          "indexed": false,
          "internalType": "uint256",
          "name": "paidCounter",
          "type": "uint256"
        }
      ],
      "name": "VendorPayRountine",
      "type": "event"
    },
    {
      "anonymous": false,
      "inputs": [
        {
          "indexed": false,
          "internalType": "uint256",
          "name": "requestNumber",
          "type": "uint256"
        }
      ],
      "name": "VendorReddem",
      "type": "event"
    },
    {
      "anonymous": false,
      "inputs": [
        {
          "indexed": false,
          "internalType": "uint256",
          "name": "_requestNumber",
          "type": "uint256"
        },
        {
          "indexed": false,
          "internalType": "address",
          "name": "_reciever",
          "type": "address"
        }
      ],
      "name": "WithDrawNFT",
      "type": "event"
    },
    {
      "inputs": [
        {
          "internalType": "address",
          "name": "",
          "type": "address"
        }
      ],
      "name": "addressBalance",
      "outputs": [
        {
          "internalType": "uint256",
          "name": "",
          "type": "uint256"
        }
      ],
      "stateMutability": "view",
      "type": "function"
    },
    {
      "inputs": [
        {
          "internalType": "uint256",
          "name": "_requestNumber",
          "type": "uint256"
        },
        {
          "internalType": "uint256",
          "name": "_offerNumber",
          "type": "uint256"
        }
      ],
      "name": "getOfferBook",
      "outputs": [
        {
          "components": [
            {
              "internalType": "address payable",
              "name": "lender",
              "type": "address"
            },
            {
              "internalType": "uint256",
              "name": "offerTokenAmount",
              "type": "uint256"
            },
            {
              "internalType": "uint256",
              "name": "offerRate",
              "type": "uint256"
            },
            {
              "internalType": "uint256",
              "name": "offerAmountOfTime",
              "type": "uint256"
            },
            {
              "internalType": "uint256",
              "name": "offerPaymentTime",
              "type": "uint256"
            }
          ],
          "internalType": "struct Offer.OfferDetail",
          "name": "",
          "type": "tuple"
        }
      ],
      "stateMutability": "view",
      "type": "function"
    },
    {
      "inputs": [
        {
          "internalType": "uint256",
          "name": "_requestNumber",
          "type": "uint256"
        }
      ],
      "name": "getReceiptBook",
      "outputs": [
        {
          "components": [
            {
              "internalType": "address",
              "name": "vendor",
              "type": "address"
            },
            {
              "internalType": "address",
              "name": "lender",
              "type": "address"
            },
            {
              "internalType": "contract ERC721",
              "name": "NFTAddress",
              "type": "address"
            },
            {
              "internalType": "uint256",
              "name": "tokenId",
              "type": "uint256"
            },
            {
              "internalType": "uint256",
              "name": "tokenAmount",
              "type": "uint256"
            },
            {
              "internalType": "uint256",
              "name": "tokenRate",
              "type": "uint256"
            },
            {
              "internalType": "uint256",
              "name": "amountOfTime",
              "type": "uint256"
            },
            {
              "internalType": "uint256",
              "name": "deadLine",
              "type": "uint256"
            },
            {
              "internalType": "uint256",
              "name": "paymentTime",
              "type": "uint256"
            },
            {
              "internalType": "uint256",
              "name": "paymentCount",
              "type": "uint256"
            }
          ],
          "internalType": "struct Receipt.ReceiptDetail",
          "name": "",
          "type": "tuple"
        }
      ],
      "stateMutability": "view",
      "type": "function"
    },
    {
      "inputs": [
        {
          "internalType": "uint256",
          "name": "_requestNumber",
          "type": "uint256"
        }
      ],
      "name": "getTokenMustPaidPerTime",
      "outputs": [
        {
          "internalType": "uint256",
          "name": "",
          "type": "uint256"
        }
      ],
      "stateMutability": "view",
      "type": "function"
    },
    {
      "inputs": [
        {
          "internalType": "uint256",
          "name": "_requestNumber",
          "type": "uint256"
        },
        {
          "internalType": "uint256",
          "name": "_offerRate",
          "type": "uint256"
        },
        {
          "internalType": "uint256",
          "name": "_amountOfTime",
          "type": "uint256"
        },
        {
          "internalType": "uint256",
          "name": "_paymentTime",
          "type": "uint256"
        }
      ],
      "name": "lenderMakeOffer",
      "outputs": [],
      "stateMutability": "payable",
      "type": "function"
    },
    {
      "inputs": [
        {
          "internalType": "uint256",
          "name": "",
          "type": "uint256"
        },
        {
          "internalType": "uint256",
          "name": "",
          "type": "uint256"
        }
      ],
      "name": "offerBook",
      "outputs": [
        {
          "internalType": "address payable",
          "name": "lender",
          "type": "address"
        },
        {
          "internalType": "uint256",
          "name": "offerTokenAmount",
          "type": "uint256"
        },
        {
          "internalType": "uint256",
          "name": "offerRate",
          "type": "uint256"
        },
        {
          "internalType": "uint256",
          "name": "offerAmountOfTime",
          "type": "uint256"
        },
        {
          "internalType": "uint256",
          "name": "offerPaymentTime",
          "type": "uint256"
        }
      ],
      "stateMutability": "view",
      "type": "function"
    },
    {
      "inputs": [
        {
          "internalType": "uint256",
          "name": "",
          "type": "uint256"
        }
      ],
      "name": "offerOrder",
      "outputs": [
        {
          "internalType": "uint256",
          "name": "",
          "type": "uint256"
        }
      ],
      "stateMutability": "view",
      "type": "function"
    },
    {
      "inputs": [],
      "name": "owner",
      "outputs": [
        {
          "internalType": "address",
          "name": "",
          "type": "address"
        }
      ],
      "stateMutability": "view",
      "type": "function"
    },
    {
      "inputs": [
        {
          "internalType": "uint256",
          "name": "",
          "type": "uint256"
        }
      ],
      "name": "receiptBook",
      "outputs": [
        {
          "internalType": "address",
          "name": "vendor",
          "type": "address"
        },
        {
          "internalType": "address",
          "name": "lender",
          "type": "address"
        },
        {
          "internalType": "contract ERC721",
          "name": "NFTAddress",
          "type": "address"
        },
        {
          "internalType": "uint256",
          "name": "tokenId",
          "type": "uint256"
        },
        {
          "internalType": "uint256",
          "name": "tokenAmount",
          "type": "uint256"
        },
        {
          "internalType": "uint256",
          "name": "tokenRate",
          "type": "uint256"
        },
        {
          "internalType": "uint256",
          "name": "amountOfTime",
          "type": "uint256"
        },
        {
          "internalType": "uint256",
          "name": "deadLine",
          "type": "uint256"
        },
        {
          "internalType": "uint256",
          "name": "paymentTime",
          "type": "uint256"
        },
        {
          "internalType": "uint256",
          "name": "paymentCount",
          "type": "uint256"
        }
      ],
      "stateMutability": "view",
      "type": "function"
    },
    {
      "inputs": [
        {
          "internalType": "address",
          "name": "",
          "type": "address"
        }
      ],
      "name": "registerAddresses",
      "outputs": [
        {
          "internalType": "bool",
          "name": "",
          "type": "bool"
        }
      ],
      "stateMutability": "view",
      "type": "function"
    },
    {
      "inputs": [
        {
          "internalType": "address",
          "name": "",
          "type": "address"
        }
      ],
      "name": "registerERC721",
      "outputs": [
        {
          "internalType": "bool",
          "name": "",
          "type": "bool"
        }
      ],
      "stateMutability": "view",
      "type": "function"
    },
    {
      "inputs": [],
      "name": "registerLending",
      "outputs": [],
      "stateMutability": "nonpayable",
      "type": "function"
    },
    {
      "inputs": [
        {
          "internalType": "contract ERC721",
          "name": "_NFTAddress",
          "type": "address"
        }
      ],
      "name": "registerNFT",
      "outputs": [],
      "stateMutability": "nonpayable",
      "type": "function"
    },
    {
      "inputs": [
        {
          "internalType": "address",
          "name": "",
          "type": "address"
        }
      ],
      "name": "registerNFTs",
      "outputs": [
        {
          "internalType": "bool",
          "name": "",
          "type": "bool"
        }
      ],
      "stateMutability": "view",
      "type": "function"
    },
    {
      "inputs": [],
      "name": "renounceOwnership",
      "outputs": [],
      "stateMutability": "nonpayable",
      "type": "function"
    },
    {
      "inputs": [
        {
          "internalType": "address",
          "name": "newOwner",
          "type": "address"
        }
      ],
      "name": "transferOwnership",
      "outputs": [],
      "stateMutability": "nonpayable",
      "type": "function"
    },
    {
      "inputs": [
        {
          "internalType": "contract ERC721",
          "name": "_NFTAddress",
          "type": "address"
        }
      ],
      "name": "unRegisterNFT",
      "outputs": [],
      "stateMutability": "nonpayable",
      "type": "function"
    },
    {
      "inputs": [
        {
          "internalType": "uint256",
          "name": "_requestNumber",
          "type": "uint256"
        },
        {
          "internalType": "uint256",
          "name": "_offerNumber",
          "type": "uint256"
        }
      ],
      "name": "vendorAcceptOffer",
      "outputs": [],
      "stateMutability": "nonpayable",
      "type": "function"
    },
    {
      "inputs": [
        {
          "internalType": "contract ERC721",
          "name": "NFTAddress",
          "type": "address"
        },
        {
          "internalType": "uint256",
          "name": "tokenId",
          "type": "uint256"
        }
      ],
      "name": "vendorMakeRequest",
      "outputs": [],
      "stateMutability": "nonpayable",
      "type": "function"
    },
    {
      "inputs": [
        {
          "internalType": "uint256",
          "name": "_requestNumber",
          "type": "uint256"
        }
      ],
      "name": "vendorPayRountine",
      "outputs": [],
      "stateMutability": "payable",
      "type": "function"
    },
    {
      "inputs": [
        {
          "internalType": "uint256",
          "name": "_requestNumber",
          "type": "uint256"
        }
      ],
      "name": "withdrawNFT",
      "outputs": [],
      "stateMutability": "nonpayable",
      "type": "function"
    }
  ],
  "bytecode": "0x60806040523480156200001157600080fd5b5062000032620000266200003860201b60201c565b6200004060201b60201c565b62000104565b600033905090565b60008060009054906101000a900473ffffffffffffffffffffffffffffffffffffffff169050816000806101000a81548173ffffffffffffffffffffffffffffffffffffffff021916908373ffffffffffffffffffffffffffffffffffffffff1602179055508173ffffffffffffffffffffffffffffffffffffffff168173ffffffffffffffffffffffffffffffffffffffff167f8be0079c531659141344cd1fd0a4f28419497f9722a3daafe3b4186f6b6457e060405160405180910390a35050565b61321a80620001146000396000f3fe60806040526004361061012a5760003560e01c8063715018a6116100ab578063a0925cbd1161006f578063a0925cbd146103d2578063b689876b1461040f578063cbb78c9a1461044c578063f2fde38b14610475578063fb3f28fe1461049e578063fdf586d7146104df5761012a565b8063715018a6146102ff57806376f59acf146103165780638da5cb5b146103535780639e3b6c4c1461037e5780639f6eb4f3146103bb5761012a565b80633ec4de35116100f25780633ec4de351461020a5780635f6fc51b14610247578063665912c3146102705780636aaf1f38146102995780636f26ba14146102c25761012a565b8063023245d71461012f57806312a1dc1d146101585780631d727b23146101955780631e90ca32146101b15780633ca5da8d146101cd575b600080fd5b34801561013b57600080fd5b50610156600480360381019061015191906121b4565b610525565b005b34801561016457600080fd5b5061017f600480360381019061017a91906121b4565b6107b7565b60405161018c919061235c565b60405180910390f35b6101af60048036038101906101aa91906121b4565b61092d565b005b6101cb60048036038101906101c69190612378565b610ce4565b005b3480156101d957600080fd5b506101f460048036038101906101ef91906123df565b610fa4565b60405161020191906124a8565b60405180910390f35b34801561021657600080fd5b50610231600480360381019061022c91906124ef565b611061565b60405161023e919061252b565b60405180910390f35b34801561025357600080fd5b5061026e60048036038101906102699190612584565b611079565b005b34801561027c57600080fd5b50610297600480360381019061029291906125c4565b61137f565b005b3480156102a557600080fd5b506102c060048036038101906102bb91906125c4565b6114ac565b005b3480156102ce57600080fd5b506102e960048036038101906102e491906124ef565b6115d9565b6040516102f6919061260c565b60405180910390f35b34801561030b57600080fd5b506103146115f9565b005b34801561032257600080fd5b5061033d600480360381019061033891906124ef565b61160d565b60405161034a919061260c565b60405180910390f35b34801561035f57600080fd5b5061036861162d565b6040516103759190612636565b60405180910390f35b34801561038a57600080fd5b506103a560048036038101906103a091906121b4565b611656565b6040516103b2919061252b565b60405180910390f35b3480156103c757600080fd5b506103d061166e565b005b3480156103de57600080fd5b506103f960048036038101906103f491906121b4565b611792565b604051610406919061252b565b60405180910390f35b34801561041b57600080fd5b50610436600480360381019061043191906124ef565b611805565b604051610443919061260c565b60405180910390f35b34801561045857600080fd5b50610473600480360381019061046e91906123df565b611825565b005b34801561048157600080fd5b5061049c600480360381019061049791906124ef565b611cd2565b005b3480156104aa57600080fd5b506104c560048036038101906104c091906123df565b611d55565b6040516104d6959493929190612660565b60405180910390f35b3480156104eb57600080fd5b50610506600480360381019061050191906121b4565b611db8565b60405161051c9a999897969594939291906126c2565b60405180910390f35b6000610530826107b7565b9050600081604001519050816000015173ffffffffffffffffffffffffffffffffffffffff163373ffffffffffffffffffffffffffffffffffffffff1614806105a85750816020015173ffffffffffffffffffffffffffffffffffffffff163373ffffffffffffffffffffffffffffffffffffffff16145b6105e7576040517f08c379a00000000000000000000000000000000000000000000000000000000081526004016105de906127bb565b60405180910390fd5b816020015173ffffffffffffffffffffffffffffffffffffffff163373ffffffffffffffffffffffffffffffffffffffff16036106b95760008260c001518360e00151610634919061280a565b905060008361010001518460c0015161064d919061286d565b9050600081834261065e919061280a565b610668919061286d565b905080856101200151106106b1576040517f08c379a00000000000000000000000000000000000000000000000000000000081526004016106a8906128ea565b60405180910390fd5b505050610706565b81610100015182610120015114610705576040517f08c379a00000000000000000000000000000000000000000000000000000000081526004016106fc906128ea565b60405180910390fd5b5b8073ffffffffffffffffffffffffffffffffffffffff166323b872dd303385606001516040518463ffffffff1660e01b81526004016107479392919061290a565b600060405180830381600087803b15801561076157600080fd5b505af1158015610775573d6000803e3d6000fd5b505050507fc11b01f2a3c991d770c6779a695f6264d7189edc3e57260ec9a7f70a4474529583336040516107aa929190612941565b60405180910390a1505050565b6107bf61209f565b60046000838152602001908152602001600020604051806101400160405290816000820160009054906101000a900473ffffffffffffffffffffffffffffffffffffffff1673ffffffffffffffffffffffffffffffffffffffff1673ffffffffffffffffffffffffffffffffffffffff1681526020016001820160009054906101000a900473ffffffffffffffffffffffffffffffffffffffff1673ffffffffffffffffffffffffffffffffffffffff1673ffffffffffffffffffffffffffffffffffffffff1681526020016002820160009054906101000a900473ffffffffffffffffffffffffffffffffffffffff1673ffffffffffffffffffffffffffffffffffffffff1673ffffffffffffffffffffffffffffffffffffffff1681526020016003820154815260200160048201548152602001600582015481526020016006820154815260200160078201548152602001600882015481526020016009820154815250509050919050565b600060046000838152602001908152602001600020905060008160060154826007015461095a919061280a565b9050600082600801548360060154610972919061286d565b90506000818342610983919061280a565b61098d919061286d565b905083600901548460090154106109d9576040517f08c379a00000000000000000000000000000000000000000000000000000000081526004016109d0906129b6565b60405180910390fd5b8084600901541015610a20576040517f08c379a0000000000000000000000000000000000000000000000000000000008152600401610a1790612a22565b60405180910390fd5b6000610a2b86611792565b905080341015610a70576040517f08c379a0000000000000000000000000000000000000000000000000000000008152600401610a6790612a8e565b60405180910390fd5b8034610a7c919061280a565b600860003373ffffffffffffffffffffffffffffffffffffffff1673ffffffffffffffffffffffffffffffffffffffff1681526020019081526020016000206000828254610aca9190612aae565b92505081905550610b146040518060400160405280600b81526020017f746f6b656e416d6f756e740000000000000000000000000000000000000000008152508660040154611e6c565b610b926040518060400160405280601b81526020017f206164647265737342616c616e63655b6d73672e73656e6465725d0000000000815250600860003373ffffffffffffffffffffffffffffffffffffffff1673ffffffffffffffffffffffffffffffffffffffff16815260200190815260200160002054611e6c565b610bd16040518060400160405280600d81526020017f746f6b656e4d757374506169640000000000000000000000000000000000000081525082611e6c565b60008560010160009054906101000a900473ffffffffffffffffffffffffffffffffffffffff1690508073ffffffffffffffffffffffffffffffffffffffff166108fc839081150290604051600060405180830381858888f19350505050158015610c40573d6000803e3d6000fd5b50856009016000815480929190610c5690612ae2565b9190505550610c9e6040518060400160405280600f81526020017f72642e7061796d656e74436f756e7400000000000000000000000000000000008152508760090154611e6c565b7fa5b38515d2d022b2ba1ab51c9d7e7a65562e00e923943d9f63bc0318392551cc878760090154604051610cd3929190612b2a565b60405180910390a150505050505050565b6000600660008681526020019081526020016000205490506000600460008781526020019081526020016000209050600073ffffffffffffffffffffffffffffffffffffffff168160000160009054906101000a900473ffffffffffffffffffffffffffffffffffffffff1673ffffffffffffffffffffffffffffffffffffffff1603610da6576040517f08c379a0000000000000000000000000000000000000000000000000000000008152600401610d9d90612b9f565b60405180910390fd5b62093a808385610db6919061286d565b10158015610dc6575062278d0084105b610e05576040517f08c379a0000000000000000000000000000000000000000000000000000000008152600401610dfc90612c31565b60405180910390fd5b6040518060a001604052803373ffffffffffffffffffffffffffffffffffffffff1681526020013481526020018681526020018581526020018481525060056000888152602001908152602001600020600084815260200190815260200160002060008201518160000160006101000a81548173ffffffffffffffffffffffffffffffffffffffff021916908373ffffffffffffffffffffffffffffffffffffffff160217905550602082015181600101556040820151816002015560608201518160030155608082015181600401559050506001600660008881526020019081526020016000206000828254610efc9190612aae565b9250508190555034600860003373ffffffffffffffffffffffffffffffffffffffff1673ffffffffffffffffffffffffffffffffffffffff1681526020019081526020016000206000828254610f529190612aae565b925050819055507f50f6b5023be496691b3891b86afe1c2608733fb577cf0e100d9d697d968f307533878434898989604051610f949796959493929190612c51565b60405180910390a1505050505050565b610fac612134565b6005600084815260200190815260200160002060008381526020019081526020016000206040518060a00160405290816000820160009054906101000a900473ffffffffffffffffffffffffffffffffffffffff1673ffffffffffffffffffffffffffffffffffffffff1673ffffffffffffffffffffffffffffffffffffffff168152602001600182015481526020016002820154815260200160038201548152602001600482015481525050905092915050565b60086020528060005260406000206000915090505481565b3373ffffffffffffffffffffffffffffffffffffffff168273ffffffffffffffffffffffffffffffffffffffff16636352211e836040518263ffffffff1660e01b81526004016110c9919061252b565b602060405180830381865afa1580156110e6573d6000803e3d6000fd5b505050506040513d601f19601f8201168201806040525081019061110a9190612cd5565b73ffffffffffffffffffffffffffffffffffffffff1614611160576040517f08c379a000000000000000000000000000000000000000000000000000000000815260040161115790612d4e565b60405180910390fd5b6040518061014001604052803373ffffffffffffffffffffffffffffffffffffffff168152602001600073ffffffffffffffffffffffffffffffffffffffff1681526020018373ffffffffffffffffffffffffffffffffffffffff16815260200182815260200160008152602001600081526020016000815260200160008152602001600081526020016000815250600460006111fd6001611f08565b815260200190815260200160002060008201518160000160006101000a81548173ffffffffffffffffffffffffffffffffffffffff021916908373ffffffffffffffffffffffffffffffffffffffff16021790555060208201518160010160006101000a81548173ffffffffffffffffffffffffffffffffffffffff021916908373ffffffffffffffffffffffffffffffffffffffff16021790555060408201518160020160006101000a81548173ffffffffffffffffffffffffffffffffffffffff021916908373ffffffffffffffffffffffffffffffffffffffff160217905550606082015181600301556080820151816004015560a0820151816005015560c0820151816006015560e08201518160070155610100820151816008015561012082015181600901559050506113356001611f16565b7f9ab7201699b86631d498cffaafb83086e326cb6677b121cbf95e1417628681473383836113636001611f08565b6040516113739493929190612d6e565b60405180910390a15050565b611387611f2c565b60011515600360008373ffffffffffffffffffffffffffffffffffffffff1673ffffffffffffffffffffffffffffffffffffffff16815260200190815260200160002060009054906101000a900460ff1615150361141a576040517f08c379a000000000000000000000000000000000000000000000000000000000815260040161141190612dff565b60405180910390fd5b6000600360008373ffffffffffffffffffffffffffffffffffffffff1673ffffffffffffffffffffffffffffffffffffffff16815260200190815260200160002060006101000a81548160ff0219169083151502179055507f47a68d495ca67fd0a225bf31f11c6546e283fd92264120d78a882a9a30357bb4816040516114a19190612636565b60405180910390a150565b6114b4611f2c565b60011515600360008373ffffffffffffffffffffffffffffffffffffffff1673ffffffffffffffffffffffffffffffffffffffff16815260200190815260200160002060009054906101000a900460ff16151503611547576040517f08c379a000000000000000000000000000000000000000000000000000000000815260040161153e90612e6b565b60405180910390fd5b6001600360008373ffffffffffffffffffffffffffffffffffffffff1673ffffffffffffffffffffffffffffffffffffffff16815260200190815260200160002060006101000a81548160ff0219169083151502179055507f7fb5539ccc03b6d4621f2b708d17c807f41edb95f84db3fa93d785a4d9fe9889816040516115ce9190612636565b60405180910390a150565b60026020528060005260406000206000915054906101000a900460ff1681565b611601611f2c565b61160b6000611faa565b565b60036020528060005260406000206000915054906101000a900460ff1681565b60008060009054906101000a900473ffffffffffffffffffffffffffffffffffffffff16905090565b60066020528060005260406000206000915090505481565b60011515600260003373ffffffffffffffffffffffffffffffffffffffff1673ffffffffffffffffffffffffffffffffffffffff16815260200190815260200160002060009054906101000a900460ff16151503611701576040517f08c379a00000000000000000000000000000000000000000000000000000000081526004016116f890612e6b565b60405180910390fd5b6001600260003373ffffffffffffffffffffffffffffffffffffffff1673ffffffffffffffffffffffffffffffffffffffff16815260200190815260200160002060006101000a81548160ff0219169083151502179055507fe3ef193e4129e2935a1b72a9bf22a4d3d4034fc81d7cda95a10ec614f338a50c336040516117889190612636565b60405180910390a1565b600080600460008481526020019081526020016000209050600081600801546064836005015484600401546117c79190612e8b565b6117d1919061286d565b6117db919061286d565b826008015483600401546117ef919061286d565b6117f99190612aae565b90508092505050919050565b60076020528060005260406000206000915054906101000a900460ff1681565b813373ffffffffffffffffffffffffffffffffffffffff166004600083815260200190815260200160002060000160009054906101000a900473ffffffffffffffffffffffffffffffffffffffff1673ffffffffffffffffffffffffffffffffffffffff16146118ca576040517f08c379a00000000000000000000000000000000000000000000000000000000081526004016118c190612f19565b60405180910390fd5b600060046000858152602001908152602001600020905060006005600086815260200190815260200160002060008581526020019081526020016000206040518060a00160405290816000820160009054906101000a900473ffffffffffffffffffffffffffffffffffffffff1673ffffffffffffffffffffffffffffffffffffffff1673ffffffffffffffffffffffffffffffffffffffff1681526020016001820154815260200160028201548152602001600382015481526020016004820154815250509050600073ffffffffffffffffffffffffffffffffffffffff16816000015173ffffffffffffffffffffffffffffffffffffffff1603611a05576040517f08c379a00000000000000000000000000000000000000000000000000000000081526004016119fc90612f85565b60405180910390fd5b806020015160086000836000015173ffffffffffffffffffffffffffffffffffffffff1673ffffffffffffffffffffffffffffffffffffffff168152602001908152602001600020541015611a8f576040517f08c379a0000000000000000000000000000000000000000000000000000000008152600401611a8690613017565b60405180910390fd5b80600001518260010160006101000a81548173ffffffffffffffffffffffffffffffffffffffff021916908373ffffffffffffffffffffffffffffffffffffffff160217905550806020015182600401819055508060400151826005018190555080606001518260060181905550806060015142611b0d9190612aae565b82600701819055508060800151826008018190555060008260020160009054906101000a900473ffffffffffffffffffffffffffffffffffffffff1690508073ffffffffffffffffffffffffffffffffffffffff166323b872dd8460000160009054906101000a900473ffffffffffffffffffffffffffffffffffffffff163086600301546040518463ffffffff1660e01b8152600401611bb09392919061290a565b600060405180830381600087803b158015611bca57600080fd5b505af1158015611bde573d6000803e3d6000fd5b5050505060003390508073ffffffffffffffffffffffffffffffffffffffff166108fc84602001519081150290604051600060405180830381858888f19350505050158015611c31573d6000803e3d6000fd5b50826020015160086000856000015173ffffffffffffffffffffffffffffffffffffffff1673ffffffffffffffffffffffffffffffffffffffff1681526020019081526020016000206000828254611c89919061280a565b925050819055507f33480e6438de06b082e71645818d7d706fce12aa866dcefbb25301b3fed7f0af8787604051611cc1929190612b2a565b60405180910390a150505050505050565b611cda611f2c565b600073ffffffffffffffffffffffffffffffffffffffff168173ffffffffffffffffffffffffffffffffffffffff1603611d49576040517f08c379a0000000000000000000000000000000000000000000000000000000008152600401611d40906130a9565b60405180910390fd5b611d5281611faa565b50565b6005602052816000526040600020602052806000526040600020600091509150508060000160009054906101000a900473ffffffffffffffffffffffffffffffffffffffff16908060010154908060020154908060030154908060040154905085565b60046020528060005260406000206000915090508060000160009054906101000a900473ffffffffffffffffffffffffffffffffffffffff16908060010160009054906101000a900473ffffffffffffffffffffffffffffffffffffffff16908060020160009054906101000a900473ffffffffffffffffffffffffffffffffffffffff1690806003015490806004015490806005015490806006015490806007015490806008015490806009015490508a565b611f048282604051602401611e82929190613148565b6040516020818303038152906040527fb60e72cc000000000000000000000000000000000000000000000000000000007bffffffffffffffffffffffffffffffffffffffffffffffffffffffff19166020820180517bffffffffffffffffffffffffffffffffffffffffffffffffffffffff838183161783525050505061206e565b5050565b600081600001549050919050565b6001816000016000828254019250508190555050565b611f34612097565b73ffffffffffffffffffffffffffffffffffffffff16611f5261162d565b73ffffffffffffffffffffffffffffffffffffffff1614611fa8576040517f08c379a0000000000000000000000000000000000000000000000000000000008152600401611f9f906131c4565b60405180910390fd5b565b60008060009054906101000a900473ffffffffffffffffffffffffffffffffffffffff169050816000806101000a81548173ffffffffffffffffffffffffffffffffffffffff021916908373ffffffffffffffffffffffffffffffffffffffff1602179055508173ffffffffffffffffffffffffffffffffffffffff168173ffffffffffffffffffffffffffffffffffffffff167f8be0079c531659141344cd1fd0a4f28419497f9722a3daafe3b4186f6b6457e060405160405180910390a35050565b60008151905060006a636f6e736f6c652e6c6f679050602083016000808483855afa5050505050565b600033905090565b604051806101400160405280600073ffffffffffffffffffffffffffffffffffffffff168152602001600073ffffffffffffffffffffffffffffffffffffffff168152602001600073ffffffffffffffffffffffffffffffffffffffff168152602001600081526020016000815260200160008152602001600081526020016000815260200160008152602001600081525090565b6040518060a00160405280600073ffffffffffffffffffffffffffffffffffffffff168152602001600081526020016000815260200160008152602001600081525090565b600080fd5b6000819050919050565b6121918161217e565b811461219c57600080fd5b50565b6000813590506121ae81612188565b92915050565b6000602082840312156121ca576121c9612179565b5b60006121d88482850161219f565b91505092915050565b600073ffffffffffffffffffffffffffffffffffffffff82169050919050565b600061220c826121e1565b9050919050565b61221c81612201565b82525050565b6000819050919050565b600061224761224261223d846121e1565b612222565b6121e1565b9050919050565b60006122598261222c565b9050919050565b600061226b8261224e565b9050919050565b61227b81612260565b82525050565b61228a8161217e565b82525050565b610140820160008201516122a76000850182612213565b5060208201516122ba6020850182612213565b5060408201516122cd6040850182612272565b5060608201516122e06060850182612281565b5060808201516122f36080850182612281565b5060a082015161230660a0850182612281565b5060c082015161231960c0850182612281565b5060e082015161232c60e0850182612281565b50610100820151612341610100850182612281565b50610120820151612356610120850182612281565b50505050565b6000610140820190506123726000830184612290565b92915050565b6000806000806080858703121561239257612391612179565b5b60006123a08782880161219f565b94505060206123b18782880161219f565b93505060406123c28782880161219f565b92505060606123d38782880161219f565b91505092959194509250565b600080604083850312156123f6576123f5612179565b5b60006124048582860161219f565b92505060206124158582860161219f565b9150509250929050565b600061242a826121e1565b9050919050565b61243a8161241f565b82525050565b60a0820160008201516124566000850182612431565b5060208201516124696020850182612281565b50604082015161247c6040850182612281565b50606082015161248f6060850182612281565b5060808201516124a26080850182612281565b50505050565b600060a0820190506124bd6000830184612440565b92915050565b6124cc81612201565b81146124d757600080fd5b50565b6000813590506124e9816124c3565b92915050565b60006020828403121561250557612504612179565b5b6000612513848285016124da565b91505092915050565b6125258161217e565b82525050565b6000602082019050612540600083018461251c565b92915050565b600061255182612201565b9050919050565b61256181612546565b811461256c57600080fd5b50565b60008135905061257e81612558565b92915050565b6000806040838503121561259b5761259a612179565b5b60006125a98582860161256f565b92505060206125ba8582860161219f565b9150509250929050565b6000602082840312156125da576125d9612179565b5b60006125e88482850161256f565b91505092915050565b60008115159050919050565b612606816125f1565b82525050565b600060208201905061262160008301846125fd565b92915050565b61263081612201565b82525050565b600060208201905061264b6000830184612627565b92915050565b61265a8161241f565b82525050565b600060a0820190506126756000830188612651565b612682602083018761251c565b61268f604083018661251c565b61269c606083018561251c565b6126a9608083018461251c565b9695505050505050565b6126bc81612260565b82525050565b6000610140820190506126d8600083018d612627565b6126e5602083018c612627565b6126f2604083018b6126b3565b6126ff606083018a61251c565b61270c608083018961251c565b61271960a083018861251c565b61272660c083018761251c565b61273360e083018661251c565b61274161010083018561251c565b61274f61012083018461251c565b9b9a5050505050505050505050565b600082825260208201905092915050565b7f4c656e64696e673a206e6f742061626c6520746f206163636573730000000000600082015250565b60006127a5601b8361275e565b91506127b08261276f565b602082019050919050565b600060208201905081810360008301526127d481612798565b9050919050565b7f4e487b7100000000000000000000000000000000000000000000000000000000600052601160045260246000fd5b60006128158261217e565b91506128208361217e565b9250828203905081811115612838576128376127db565b5b92915050565b7f4e487b7100000000000000000000000000000000000000000000000000000000600052601260045260246000fd5b60006128788261217e565b91506128838361217e565b9250826128935761289261283e565b5b828204905092915050565b7f4c656e64696e673a2052657175657374206f6e2074696d650000000000000000600082015250565b60006128d460188361275e565b91506128df8261289e565b602082019050919050565b60006020820190508181036000830152612903816128c7565b9050919050565b600060608201905061291f6000830186612627565b61292c6020830185612627565b612939604083018461251c565b949350505050565b6000604082019050612956600083018561251c565b6129636020830184612627565b9392505050565b7f4c656e64696e673a205061696420646f6e650000000000000000000000000000600082015250565b60006129a060128361275e565b91506129ab8261296a565b602082019050919050565b600060208201905081810360008301526129cf81612993565b9050919050565b7f4c656e64696e673a20526571756573742074696d65206f757400000000000000600082015250565b6000612a0c60198361275e565b9150612a17826129d6565b602082019050919050565b60006020820190508181036000830152612a3b816129ff565b9050919050565b7f4c656e64696e673a204e6f7420656e6f75676820657468000000000000000000600082015250565b6000612a7860178361275e565b9150612a8382612a42565b602082019050919050565b60006020820190508181036000830152612aa781612a6b565b9050919050565b6000612ab98261217e565b9150612ac48361217e565b9250828201905080821115612adc57612adb6127db565b5b92915050565b6000612aed8261217e565b91507fffffffffffffffffffffffffffffffffffffffffffffffffffffffffffffffff8203612b1f57612b1e6127db565b5b600182019050919050565b6000604082019050612b3f600083018561251c565b612b4c602083018461251c565b9392505050565b7f4c656e64696e673a2072656365697074206d7573742065786973740000000000600082015250565b6000612b89601b8361275e565b9150612b9482612b53565b602082019050919050565b60006020820190508181036000830152612bb881612b7c565b9050919050565b7f4c656e64696e673a206f666665722074696d6520616e64207061796d656e742060008201527f74696d6520617265206e6f742076616c69640000000000000000000000000000602082015250565b6000612c1b60328361275e565b9150612c2682612bbf565b604082019050919050565b60006020820190508181036000830152612c4a81612c0e565b9050919050565b600060e082019050612c66600083018a612651565b612c73602083018961251c565b612c80604083018861251c565b612c8d606083018761251c565b612c9a608083018661251c565b612ca760a083018561251c565b612cb460c083018461251c565b98975050505050505050565b600081519050612ccf816124c3565b92915050565b600060208284031215612ceb57612cea612179565b5b6000612cf984828501612cc0565b91505092915050565b7f4c656e64696e673a2073656e646572206d7573742068617665204e4654000000600082015250565b6000612d38601d8361275e565b9150612d4382612d02565b602082019050919050565b60006020820190508181036000830152612d6781612d2b565b9050919050565b6000608082019050612d836000830187612627565b612d9060208301866126b3565b612d9d604083018561251c565b612daa606083018461251c565b95945050505050565b7f416c726561647920756e2d7265676973746f7200000000000000000000000000600082015250565b6000612de960138361275e565b9150612df482612db3565b602082019050919050565b60006020820190508181036000830152612e1881612ddc565b9050919050565b7f416c7265616479207265676973746f7200000000000000000000000000000000600082015250565b6000612e5560108361275e565b9150612e6082612e1f565b602082019050919050565b60006020820190508181036000830152612e8481612e48565b9050919050565b6000612e968261217e565b9150612ea18361217e565b9250828202612eaf8161217e565b91508282048414831517612ec657612ec56127db565b5b5092915050565b7f4c656e64696e673a204d7573742062652056656e646f72000000000000000000600082015250565b6000612f0360178361275e565b9150612f0e82612ecd565b602082019050919050565b60006020820190508181036000830152612f3281612ef6565b9050919050565b7f4c656e64696e673a206f66666572206d75737420657869737400000000000000600082015250565b6000612f6f60198361275e565b9150612f7a82612f39565b602082019050919050565b60006020820190508181036000830152612f9e81612f62565b9050919050565b7f4c656e64696e673a204c656e6465722062616c616e636520646f6573206e6f7460008201527f20737570706f7274000000000000000000000000000000000000000000000000602082015250565b600061300160288361275e565b915061300c82612fa5565b604082019050919050565b6000602082019050818103600083015261303081612ff4565b9050919050565b7f4f776e61626c653a206e6577206f776e657220697320746865207a65726f206160008201527f6464726573730000000000000000000000000000000000000000000000000000602082015250565b600061309360268361275e565b915061309e82613037565b604082019050919050565b600060208201905081810360008301526130c281613086565b9050919050565b600081519050919050565b60005b838110156130f25780820151818401526020810190506130d7565b60008484015250505050565b6000601f19601f8301169050919050565b600061311a826130c9565b613124818561275e565b93506131348185602086016130d4565b61313d816130fe565b840191505092915050565b60006040820190508181036000830152613162818561310f565b9050613171602083018461251c565b9392505050565b7f4f776e61626c653a2063616c6c6572206973206e6f7420746865206f776e6572600082015250565b60006131ae60208361275e565b91506131b982613178565b602082019050919050565b600060208201905081810360008301526131dd816131a1565b905091905056fea2646970667358221220c7c615d3b8e71733dcb4c1f76b32708eebc4a94fe515f6ffd0af81604a1e486a64736f6c63430008110033",
  "linkReferences": {},
  "deployedLinkReferences": {}
}