{
  "_format": "hh-sol-artifact-1",
  "contractName": "LendingFactory",
  "sourceName": "contracts/LendingFactory.sol",
  "abi": [
    {
      "inputs": [],
      "stateMutability": "nonpayable",
      "type": "constructor"
    },
    {
      "anonymous": false,
      "inputs": [
        {
          "indexed": false,
          "internalType": "address payable",
          "name": "lender",
          "type": "address"
        },
        {
          "indexed": false,
          "internalType": "uint256",
          "name": "requestNumber",
          "type": "uint256"
        },
        {
          "indexed": false,
          "internalType": "uint256",
          "name": "offerNumber",
          "type": "uint256"
        },
        {
          "indexed": false,
          "internalType": "uint256",
          "name": "offerTokenAmount",
          "type": "uint256"
        },
        {
          "indexed": false,
          "internalType": "uint256",
          "name": "offerRate",
          "type": "uint256"
        },
        {
          "indexed": false,
          "internalType": "uint256",
          "name": "offerAmountOfTime",
          "type": "uint256"
        }
      ],
      "name": "LenderMakeOffer",
      "type": "event"
    },
    {
      "anonymous": false,
      "inputs": [
        {
          "indexed": true,
          "internalType": "address",
          "name": "previousOwner",
          "type": "address"
        },
        {
          "indexed": true,
          "internalType": "address",
          "name": "newOwner",
          "type": "address"
        }
      ],
      "name": "OwnershipTransferred",
      "type": "event"
    },
    {
      "anonymous": false,
      "inputs": [
        {
          "indexed": false,
          "internalType": "address",
          "name": "_address",
          "type": "address"
        }
      ],
      "name": "RegisterLending",
      "type": "event"
    },
    {
      "anonymous": false,
      "inputs": [
        {
          "indexed": false,
          "internalType": "address",
          "name": "NFTAddress",
          "type": "address"
        }
      ],
      "name": "RegisterNFT",
      "type": "event"
    },
    {
      "anonymous": false,
      "inputs": [
        {
          "indexed": false,
          "internalType": "uint256",
          "name": "requestNumber",
          "type": "uint256"
        },
        {
          "indexed": false,
          "internalType": "uint256",
          "name": "offerNumber",
          "type": "uint256"
        }
      ],
      "name": "VendorAcceptOffer",
      "type": "event"
    },
    {
      "anonymous": false,
      "inputs": [
        {
          "indexed": false,
          "internalType": "uint256",
          "name": "requestNumber",
          "type": "uint256"
        },
        {
          "indexed": false,
          "internalType": "uint256",
          "name": "deadLine",
          "type": "uint256"
        }
      ],
      "name": "VendorExtend",
      "type": "event"
    },
    {
      "anonymous": false,
      "inputs": [
        {
          "indexed": false,
          "internalType": "address",
          "name": "vendor",
          "type": "address"
        },
        {
          "indexed": false,
          "internalType": "contract ERC721",
          "name": "NFTAddress",
          "type": "address"
        },
        {
          "indexed": false,
          "internalType": "uint256",
          "name": "tokenId",
          "type": "uint256"
        }
      ],
      "name": "VendorMakeRequest",
      "type": "event"
    },
    {
      "anonymous": false,
      "inputs": [
        {
          "indexed": false,
          "internalType": "uint256",
          "name": "requestNumber",
          "type": "uint256"
        }
      ],
      "name": "VendorReddem",
      "type": "event"
    },
    {
      "inputs": [
        {
          "internalType": "uint256",
          "name": "_requestNumber",
          "type": "uint256"
        },
        {
          "internalType": "uint256",
          "name": "_offerNumber",
          "type": "uint256"
        }
      ],
      "name": "getOfferBook",
      "outputs": [
        {
          "components": [
            {
              "internalType": "address payable",
              "name": "lender",
              "type": "address"
            },
            {
              "internalType": "uint256",
              "name": "offerTokenAmount",
              "type": "uint256"
            },
            {
              "internalType": "uint256",
              "name": "offerRate",
              "type": "uint256"
            },
            {
              "internalType": "uint256",
              "name": "offerAmountOfTime",
              "type": "uint256"
            }
          ],
          "internalType": "struct Offer.OfferDetail",
          "name": "",
          "type": "tuple"
        }
      ],
      "stateMutability": "view",
      "type": "function"
    },
    {
      "inputs": [
        {
          "internalType": "uint256",
          "name": "_requestNumber",
          "type": "uint256"
        }
      ],
      "name": "getReceiptBook",
      "outputs": [
        {
          "components": [
            {
              "internalType": "address",
              "name": "vendor",
              "type": "address"
            },
            {
              "internalType": "address",
              "name": "lender",
              "type": "address"
            },
            {
              "internalType": "contract ERC721",
              "name": "NFTAddress",
              "type": "address"
            },
            {
              "internalType": "uint256",
              "name": "tokenId",
              "type": "uint256"
            },
            {
              "internalType": "uint256",
              "name": "tokenAmount",
              "type": "uint256"
            },
            {
              "internalType": "uint256",
              "name": "paidAmount",
              "type": "uint256"
            },
            {
              "internalType": "uint256",
              "name": "tokenRate",
              "type": "uint256"
            },
            {
              "internalType": "uint256",
              "name": "amountOfTime",
              "type": "uint256"
            },
            {
              "internalType": "uint256",
              "name": "deadLine",
              "type": "uint256"
            }
          ],
          "internalType": "struct Receipt.ReceiptDetail",
          "name": "",
          "type": "tuple"
        }
      ],
      "stateMutability": "view",
      "type": "function"
    },
    {
      "inputs": [
        {
          "internalType": "uint256",
          "name": "_requestNumber",
          "type": "uint256"
        },
        {
          "internalType": "uint256",
          "name": "_offerTokenAmount",
          "type": "uint256"
        },
        {
          "internalType": "uint256",
          "name": "_offerRate",
          "type": "uint256"
        },
        {
          "internalType": "uint256",
          "name": "_amountOfTime",
          "type": "uint256"
        }
      ],
      "name": "lenderMakeOffer",
      "outputs": [],
      "stateMutability": "nonpayable",
      "type": "function"
    },
    {
      "inputs": [],
      "name": "lendingBank",
      "outputs": [
        {
          "internalType": "address",
          "name": "",
          "type": "address"
        }
      ],
      "stateMutability": "view",
      "type": "function"
    },
    {
      "inputs": [
        {
          "internalType": "uint256",
          "name": "",
          "type": "uint256"
        },
        {
          "internalType": "uint256",
          "name": "",
          "type": "uint256"
        }
      ],
      "name": "offerBook",
      "outputs": [
        {
          "internalType": "address payable",
          "name": "lender",
          "type": "address"
        },
        {
          "internalType": "uint256",
          "name": "offerTokenAmount",
          "type": "uint256"
        },
        {
          "internalType": "uint256",
          "name": "offerRate",
          "type": "uint256"
        },
        {
          "internalType": "uint256",
          "name": "offerAmountOfTime",
          "type": "uint256"
        }
      ],
      "stateMutability": "view",
      "type": "function"
    },
    {
      "inputs": [
        {
          "internalType": "uint256",
          "name": "",
          "type": "uint256"
        }
      ],
      "name": "offerOrder",
      "outputs": [
        {
          "internalType": "uint256",
          "name": "",
          "type": "uint256"
        }
      ],
      "stateMutability": "view",
      "type": "function"
    },
    {
      "inputs": [],
      "name": "owner",
      "outputs": [
        {
          "internalType": "address",
          "name": "",
          "type": "address"
        }
      ],
      "stateMutability": "view",
      "type": "function"
    },
    {
      "inputs": [
        {
          "internalType": "uint256",
          "name": "",
          "type": "uint256"
        }
      ],
      "name": "receiptBook",
      "outputs": [
        {
          "internalType": "address",
          "name": "vendor",
          "type": "address"
        },
        {
          "internalType": "address",
          "name": "lender",
          "type": "address"
        },
        {
          "internalType": "contract ERC721",
          "name": "NFTAddress",
          "type": "address"
        },
        {
          "internalType": "uint256",
          "name": "tokenId",
          "type": "uint256"
        },
        {
          "internalType": "uint256",
          "name": "tokenAmount",
          "type": "uint256"
        },
        {
          "internalType": "uint256",
          "name": "paidAmount",
          "type": "uint256"
        },
        {
          "internalType": "uint256",
          "name": "tokenRate",
          "type": "uint256"
        },
        {
          "internalType": "uint256",
          "name": "amountOfTime",
          "type": "uint256"
        },
        {
          "internalType": "uint256",
          "name": "deadLine",
          "type": "uint256"
        }
      ],
      "stateMutability": "view",
      "type": "function"
    },
    {
      "inputs": [
        {
          "internalType": "address",
          "name": "",
          "type": "address"
        }
      ],
      "name": "registerAddresses",
      "outputs": [
        {
          "internalType": "bool",
          "name": "",
          "type": "bool"
        }
      ],
      "stateMutability": "view",
      "type": "function"
    },
    {
      "inputs": [
        {
          "internalType": "address",
          "name": "",
          "type": "address"
        }
      ],
      "name": "registerERC721",
      "outputs": [
        {
          "internalType": "bool",
          "name": "",
          "type": "bool"
        }
      ],
      "stateMutability": "view",
      "type": "function"
    },
    {
      "inputs": [],
      "name": "registerLending",
      "outputs": [],
      "stateMutability": "nonpayable",
      "type": "function"
    },
    {
      "inputs": [
        {
          "internalType": "contract ERC721",
          "name": "_NFTAddress",
          "type": "address"
        }
      ],
      "name": "registerNFT",
      "outputs": [],
      "stateMutability": "nonpayable",
      "type": "function"
    },
    {
      "inputs": [
        {
          "internalType": "address",
          "name": "",
          "type": "address"
        }
      ],
      "name": "registerNFTs",
      "outputs": [
        {
          "internalType": "bool",
          "name": "",
          "type": "bool"
        }
      ],
      "stateMutability": "view",
      "type": "function"
    },
    {
      "inputs": [],
      "name": "renounceOwnership",
      "outputs": [],
      "stateMutability": "nonpayable",
      "type": "function"
    },
    {
      "inputs": [
        {
          "internalType": "address",
          "name": "newOwner",
          "type": "address"
        }
      ],
      "name": "transferOwnership",
      "outputs": [],
      "stateMutability": "nonpayable",
      "type": "function"
    },
    {
      "inputs": [
        {
          "internalType": "uint256",
          "name": "_requestNumber",
          "type": "uint256"
        },
        {
          "internalType": "uint256",
          "name": "_offerNumber",
          "type": "uint256"
        }
      ],
      "name": "vendorAcceptOffer",
      "outputs": [],
      "stateMutability": "nonpayable",
      "type": "function"
    },
    {
      "inputs": [
        {
          "internalType": "contract ERC721",
          "name": "NFTAddress",
          "type": "address"
        },
        {
          "internalType": "uint256",
          "name": "tokenId",
          "type": "uint256"
        }
      ],
      "name": "vendorMakeRequest",
      "outputs": [],
      "stateMutability": "nonpayable",
      "type": "function"
    },
    {
      "inputs": [
        {
          "internalType": "uint256",
          "name": "_requestNumber",
          "type": "uint256"
        }
      ],
      "name": "vendorPayRountine",
      "outputs": [],
      "stateMutability": "nonpayable",
      "type": "function"
    },
    {
      "inputs": [
        {
          "internalType": "uint256",
          "name": "_requestNumber",
          "type": "uint256"
        }
      ],
      "name": "vendorRedeem",
      "outputs": [],
      "stateMutability": "nonpayable",
      "type": "function"
    }
  ],
  "bytecode": "0x60806040523480156200001157600080fd5b506200003262000026620000aa60201b60201c565b620000b260201b60201c565b6000604051620000429062000176565b604051809103906000f0801580156200005f573d6000803e3d6000fd5b50905080600260006101000a81548173ffffffffffffffffffffffffffffffffffffffff021916908373ffffffffffffffffffffffffffffffffffffffff1602179055505062000184565b600033905090565b60008060009054906101000a900473ffffffffffffffffffffffffffffffffffffffff169050816000806101000a81548173ffffffffffffffffffffffffffffffffffffffff021916908373ffffffffffffffffffffffffffffffffffffffff1602179055508173ffffffffffffffffffffffffffffffffffffffff168173ffffffffffffffffffffffffffffffffffffffff167f8be0079c531659141344cd1fd0a4f28419497f9722a3daafe3b4186f6b6457e060405160405180910390a35050565b610a2080620027da83390190565b61264680620001946000396000f3fe608060405234801561001057600080fd5b50600436106101215760003560e01c8063715018a6116100ad578063b689876b11610071578063b689876b146102f2578063cbb78c9a14610322578063f2fde38b1461033e578063fb3f28fe1461035a578063fdf586d71461038d57610121565b8063715018a61461026057806376f59acf1461026a5780638da5cb5b1461029a5780639e3b6c4c146102b85780639f6eb4f3146102e857610121565b80633ca5da8d116100f45780633ca5da8d146101ac5780634ba277a3146101dc5780635f6fc51b146101f85780636aaf1f38146102145780636f26ba141461023057610121565b806312a1dc1d146101265780631d727b23146101565780631e90ca32146101725780632754f9e31461018e575b600080fd5b610140600480360381019061013b9190611aac565b6103c5565b60405161014d9190611c3f565b60405180910390f35b610170600480360381019061016b9190611aac565b610531565b005b61018c60048036038101906101879190611c5b565b610611565b005b610196610897565b6040516101a39190611cd1565b60405180910390f35b6101c660048036038101906101c19190611cec565b6108bd565b6040516101d39190611da2565b60405180910390f35b6101f660048036038101906101f19190611aac565b610970565b005b610212600480360381019061020d9190611dfb565b610bf3565b005b61022e60048036038101906102299190611e3b565b610f6f565b005b61024a60048036038101906102459190611e94565b61109c565b6040516102579190611edc565b60405180910390f35b6102686110bc565b005b610284600480360381019061027f9190611e94565b6110d0565b6040516102919190611edc565b60405180910390f35b6102a26110f0565b6040516102af9190611cd1565b60405180910390f35b6102d260048036038101906102cd9190611aac565b611119565b6040516102df9190611f06565b60405180910390f35b6102f0611131565b005b61030c60048036038101906103079190611e94565b611255565b6040516103199190611edc565b60405180910390f35b61033c60048036038101906103379190611cec565b611275565b005b61035860048036038101906103539190611e94565b6116a9565b005b610374600480360381019061036f9190611cec565b61172c565b6040516103849493929190611f30565b60405180910390f35b6103a760048036038101906103a29190611aac565b611789565b6040516103bc99989796959493929190611f84565b60405180910390f35b6103cd6119a5565b60056000838152602001908152602001600020604051806101200160405290816000820160009054906101000a900473ffffffffffffffffffffffffffffffffffffffff1673ffffffffffffffffffffffffffffffffffffffff1673ffffffffffffffffffffffffffffffffffffffff1681526020016001820160009054906101000a900473ffffffffffffffffffffffffffffffffffffffff1673ffffffffffffffffffffffffffffffffffffffff1673ffffffffffffffffffffffffffffffffffffffff1681526020016002820160009054906101000a900473ffffffffffffffffffffffffffffffffffffffff1673ffffffffffffffffffffffffffffffffffffffff1673ffffffffffffffffffffffffffffffffffffffff16815260200160038201548152602001600482015481526020016005820154815260200160068201548152602001600782015481526020016008820154815250509050919050565b600060056000838152602001908152602001600020905060006064826006015483600401546105609190612040565b61056a91906120b1565b90503373ffffffffffffffffffffffffffffffffffffffff166108fc829081150290604051600060405180830381858888f193505050501580156105b2573d6000803e3d6000fd5b50816007015482600801546105c791906120e2565b82600801819055507f77f32963d97c48ad76bd0db2438fa40903d20547c0e9dc4715ed6f058abc3e41838360080154604051610604929190612116565b60405180910390a1505050565b60001515600360003373ffffffffffffffffffffffffffffffffffffffff1673ffffffffffffffffffffffffffffffffffffffff16815260200190815260200160002060009054906101000a900460ff161515036106a4576040517f08c379a000000000000000000000000000000000000000000000000000000000815260040161069b9061219c565b60405180910390fd5b600060076000868152602001908152602001600020549050600073ffffffffffffffffffffffffffffffffffffffff166005600087815260200190815260200160002060000160009054906101000a900473ffffffffffffffffffffffffffffffffffffffff1673ffffffffffffffffffffffffffffffffffffffff1603610761576040517f08c379a000000000000000000000000000000000000000000000000000000000815260040161075890612208565b60405180910390fd5b60405180608001604052803373ffffffffffffffffffffffffffffffffffffffff1681526020018581526020018481526020018381525060066000878152602001908152602001600020600083815260200190815260200160002060008201518160000160006101000a81548173ffffffffffffffffffffffffffffffffffffffff021916908373ffffffffffffffffffffffffffffffffffffffff160217905550602082015181600101556040820151816002015560608201518160030155905050600160076000878152602001908152602001600020600082825461084891906120e2565b925050819055507ff6f1f442384b67ae095143f84fa6286925b929f608019786d1bba27fc45c5d0033868387878760405161088896959493929190612228565b60405180910390a15050505050565b600260009054906101000a900473ffffffffffffffffffffffffffffffffffffffff1681565b6108c5611a33565b6006600084815260200190815260200160002060008381526020019081526020016000206040518060800160405290816000820160009054906101000a900473ffffffffffffffffffffffffffffffffffffffff1673ffffffffffffffffffffffffffffffffffffffff1673ffffffffffffffffffffffffffffffffffffffff1681526020016001820154815260200160028201548152602001600382015481525050905092915050565b600060056000838152602001908152602001600020604051806101200160405290816000820160009054906101000a900473ffffffffffffffffffffffffffffffffffffffff1673ffffffffffffffffffffffffffffffffffffffff1673ffffffffffffffffffffffffffffffffffffffff1681526020016001820160009054906101000a900473ffffffffffffffffffffffffffffffffffffffff1673ffffffffffffffffffffffffffffffffffffffff1673ffffffffffffffffffffffffffffffffffffffff1681526020016002820160009054906101000a900473ffffffffffffffffffffffffffffffffffffffff1673ffffffffffffffffffffffffffffffffffffffff1673ffffffffffffffffffffffffffffffffffffffff1681526020016003820154815260200160048201548152602001600582015481526020016006820154815260200160078201548152602001600882015481525050905060008160c001516001610ae491906120e2565b8260800151610af39190612040565b90503373ffffffffffffffffffffffffffffffffffffffff166108fc829081150290604051600060405180830381858888f19350505050158015610b3b573d6000803e3d6000fd5b506000826020015190508073ffffffffffffffffffffffffffffffffffffffff1663c1d2d00d8585600001516040518363ffffffff1660e01b8152600401610b84929190612289565b600060405180830381600087803b158015610b9e57600080fd5b505af1158015610bb2573d6000803e3d6000fd5b505050507f68592b38a53ff05be58e55fc106be23422c51ea38e3594b546e9c18baf60be0b84604051610be59190611f06565b60405180910390a150505050565b60001515600360003373ffffffffffffffffffffffffffffffffffffffff1673ffffffffffffffffffffffffffffffffffffffff16815260200190815260200160002060009054906101000a900460ff16151503610c86576040517f08c379a0000000000000000000000000000000000000000000000000000000008152600401610c7d9061219c565b60405180910390fd5b3373ffffffffffffffffffffffffffffffffffffffff168273ffffffffffffffffffffffffffffffffffffffff16636352211e836040518263ffffffff1660e01b8152600401610cd69190611f06565b602060405180830381865afa158015610cf3573d6000803e3d6000fd5b505050506040513d601f19601f82011682018060405250810190610d1791906122c7565b73ffffffffffffffffffffffffffffffffffffffff1614610d6d576040517f08c379a0000000000000000000000000000000000000000000000000000000008152600401610d6490612340565b60405180910390fd5b6040518061012001604052803373ffffffffffffffffffffffffffffffffffffffff168152602001600073ffffffffffffffffffffffffffffffffffffffff1681526020018373ffffffffffffffffffffffffffffffffffffffff16815260200182815260200160008152602001600081526020016000815260200160008152602001600081525060056000610e036001611837565b815260200190815260200160002060008201518160000160006101000a81548173ffffffffffffffffffffffffffffffffffffffff021916908373ffffffffffffffffffffffffffffffffffffffff16021790555060208201518160010160006101000a81548173ffffffffffffffffffffffffffffffffffffffff021916908373ffffffffffffffffffffffffffffffffffffffff16021790555060408201518160020160006101000a81548173ffffffffffffffffffffffffffffffffffffffff021916908373ffffffffffffffffffffffffffffffffffffffff160217905550606082015181600301556080820151816004015560a0820151816005015560c0820151816006015560e082015181600701556101008201518160080155905050610f306001611845565b7f55cad5487a8d5706bf3bd54110cc7c218f67a1d7a7a5d9ac3118efb7e274072f338383604051610f6393929190612360565b60405180910390a15050565b610f7761185b565b60011515600460008373ffffffffffffffffffffffffffffffffffffffff1673ffffffffffffffffffffffffffffffffffffffff16815260200190815260200160002060009054906101000a900460ff1615150361100a576040517f08c379a0000000000000000000000000000000000000000000000000000000008152600401611001906123e3565b60405180910390fd5b6001600460008373ffffffffffffffffffffffffffffffffffffffff1673ffffffffffffffffffffffffffffffffffffffff16815260200190815260200160002060006101000a81548160ff0219169083151502179055507f7fb5539ccc03b6d4621f2b708d17c807f41edb95f84db3fa93d785a4d9fe9889816040516110919190611cd1565b60405180910390a150565b60036020528060005260406000206000915054906101000a900460ff1681565b6110c461185b565b6110ce60006118d9565b565b60046020528060005260406000206000915054906101000a900460ff1681565b60008060009054906101000a900473ffffffffffffffffffffffffffffffffffffffff16905090565b60076020528060005260406000206000915090505481565b60011515600360003373ffffffffffffffffffffffffffffffffffffffff1673ffffffffffffffffffffffffffffffffffffffff16815260200190815260200160002060009054906101000a900460ff161515036111c4576040517f08c379a00000000000000000000000000000000000000000000000000000000081526004016111bb906123e3565b60405180910390fd5b6001600360003373ffffffffffffffffffffffffffffffffffffffff1673ffffffffffffffffffffffffffffffffffffffff16815260200190815260200160002060006101000a81548160ff0219169083151502179055507fe3ef193e4129e2935a1b72a9bf22a4d3d4034fc81d7cda95a10ec614f338a50c3360405161124b9190611cd1565b60405180910390a1565b60086020528060005260406000206000915054906101000a900460ff1681565b60001515600360003373ffffffffffffffffffffffffffffffffffffffff1673ffffffffffffffffffffffffffffffffffffffff16815260200190815260200160002060009054906101000a900460ff16151503611308576040517f08c379a00000000000000000000000000000000000000000000000000000000081526004016112ff9061219c565b60405180910390fd5b813373ffffffffffffffffffffffffffffffffffffffff166005600083815260200190815260200160002060000160009054906101000a900473ffffffffffffffffffffffffffffffffffffffff1673ffffffffffffffffffffffffffffffffffffffff16146113ad576040517f08c379a00000000000000000000000000000000000000000000000000000000081526004016113a49061244f565b60405180910390fd5b600060056000858152602001908152602001600020905060006006600086815260200190815260200160002060008581526020019081526020016000206040518060800160405290816000820160009054906101000a900473ffffffffffffffffffffffffffffffffffffffff1673ffffffffffffffffffffffffffffffffffffffff1673ffffffffffffffffffffffffffffffffffffffff16815260200160018201548152602001600282015481526020016003820154815250509050600073ffffffffffffffffffffffffffffffffffffffff16816000015173ffffffffffffffffffffffffffffffffffffffff16036114de576040517f08c379a00000000000000000000000000000000000000000000000000000000081526004016114d5906124bb565b60405180910390fd5b80600001518260010160006101000a81548173ffffffffffffffffffffffffffffffffffffffff021916908373ffffffffffffffffffffffffffffffffffffffff16021790555080602001518260040181905550806040015182600601819055508060600151826007018190555080606001514261155c91906120e2565b826008018190555060008260020160009054906101000a900473ffffffffffffffffffffffffffffffffffffffff1690508073ffffffffffffffffffffffffffffffffffffffff166323b872dd8460000160009054906101000a900473ffffffffffffffffffffffffffffffffffffffff16600260009054906101000a900473ffffffffffffffffffffffffffffffffffffffff1686600301546040518463ffffffff1660e01b8152600401611614939291906124db565b600060405180830381600087803b15801561162e57600080fd5b505af1158015611642573d6000803e3d6000fd5b50505050816000015173ffffffffffffffffffffffffffffffffffffffff16826020015150507f33480e6438de06b082e71645818d7d706fce12aa866dcefbb25301b3fed7f0af8686604051611699929190612116565b60405180910390a1505050505050565b6116b161185b565b600073ffffffffffffffffffffffffffffffffffffffff168173ffffffffffffffffffffffffffffffffffffffff1603611720576040517f08c379a000000000000000000000000000000000000000000000000000000000815260040161171790612584565b60405180910390fd5b611729816118d9565b50565b6006602052816000526040600020602052806000526040600020600091509150508060000160009054906101000a900473ffffffffffffffffffffffffffffffffffffffff16908060010154908060020154908060030154905084565b60056020528060005260406000206000915090508060000160009054906101000a900473ffffffffffffffffffffffffffffffffffffffff16908060010160009054906101000a900473ffffffffffffffffffffffffffffffffffffffff16908060020160009054906101000a900473ffffffffffffffffffffffffffffffffffffffff16908060030154908060040154908060050154908060060154908060070154908060080154905089565b600081600001549050919050565b6001816000016000828254019250508190555050565b61186361199d565b73ffffffffffffffffffffffffffffffffffffffff166118816110f0565b73ffffffffffffffffffffffffffffffffffffffff16146118d7576040517f08c379a00000000000000000000000000000000000000000000000000000000081526004016118ce906125f0565b60405180910390fd5b565b60008060009054906101000a900473ffffffffffffffffffffffffffffffffffffffff169050816000806101000a81548173ffffffffffffffffffffffffffffffffffffffff021916908373ffffffffffffffffffffffffffffffffffffffff1602179055508173ffffffffffffffffffffffffffffffffffffffff168173ffffffffffffffffffffffffffffffffffffffff167f8be0079c531659141344cd1fd0a4f28419497f9722a3daafe3b4186f6b6457e060405160405180910390a35050565b600033905090565b604051806101200160405280600073ffffffffffffffffffffffffffffffffffffffff168152602001600073ffffffffffffffffffffffffffffffffffffffff168152602001600073ffffffffffffffffffffffffffffffffffffffff1681526020016000815260200160008152602001600081526020016000815260200160008152602001600081525090565b6040518060800160405280600073ffffffffffffffffffffffffffffffffffffffff1681526020016000815260200160008152602001600081525090565b600080fd5b6000819050919050565b611a8981611a76565b8114611a9457600080fd5b50565b600081359050611aa681611a80565b92915050565b600060208284031215611ac257611ac1611a71565b5b6000611ad084828501611a97565b91505092915050565b600073ffffffffffffffffffffffffffffffffffffffff82169050919050565b6000611b0482611ad9565b9050919050565b611b1481611af9565b82525050565b6000819050919050565b6000611b3f611b3a611b3584611ad9565b611b1a565b611ad9565b9050919050565b6000611b5182611b24565b9050919050565b6000611b6382611b46565b9050919050565b611b7381611b58565b82525050565b611b8281611a76565b82525050565b61012082016000820151611b9f6000850182611b0b565b506020820151611bb26020850182611b0b565b506040820151611bc56040850182611b6a565b506060820151611bd86060850182611b79565b506080820151611beb6080850182611b79565b5060a0820151611bfe60a0850182611b79565b5060c0820151611c1160c0850182611b79565b5060e0820151611c2460e0850182611b79565b50610100820151611c39610100850182611b79565b50505050565b600061012082019050611c556000830184611b88565b92915050565b60008060008060808587031215611c7557611c74611a71565b5b6000611c8387828801611a97565b9450506020611c9487828801611a97565b9350506040611ca587828801611a97565b9250506060611cb687828801611a97565b91505092959194509250565b611ccb81611af9565b82525050565b6000602082019050611ce66000830184611cc2565b92915050565b60008060408385031215611d0357611d02611a71565b5b6000611d1185828601611a97565b9250506020611d2285828601611a97565b9150509250929050565b6000611d3782611ad9565b9050919050565b611d4781611d2c565b82525050565b608082016000820151611d636000850182611d3e565b506020820151611d766020850182611b79565b506040820151611d896040850182611b79565b506060820151611d9c6060850182611b79565b50505050565b6000608082019050611db76000830184611d4d565b92915050565b6000611dc882611af9565b9050919050565b611dd881611dbd565b8114611de357600080fd5b50565b600081359050611df581611dcf565b92915050565b60008060408385031215611e1257611e11611a71565b5b6000611e2085828601611de6565b9250506020611e3185828601611a97565b9150509250929050565b600060208284031215611e5157611e50611a71565b5b6000611e5f84828501611de6565b91505092915050565b611e7181611af9565b8114611e7c57600080fd5b50565b600081359050611e8e81611e68565b92915050565b600060208284031215611eaa57611ea9611a71565b5b6000611eb884828501611e7f565b91505092915050565b60008115159050919050565b611ed681611ec1565b82525050565b6000602082019050611ef16000830184611ecd565b92915050565b611f0081611a76565b82525050565b6000602082019050611f1b6000830184611ef7565b92915050565b611f2a81611d2c565b82525050565b6000608082019050611f456000830187611f21565b611f526020830186611ef7565b611f5f6040830185611ef7565b611f6c6060830184611ef7565b95945050505050565b611f7e81611b58565b82525050565b600061012082019050611f9a600083018c611cc2565b611fa7602083018b611cc2565b611fb4604083018a611f75565b611fc16060830189611ef7565b611fce6080830188611ef7565b611fdb60a0830187611ef7565b611fe860c0830186611ef7565b611ff560e0830185611ef7565b612003610100830184611ef7565b9a9950505050505050505050565b7f4e487b7100000000000000000000000000000000000000000000000000000000600052601160045260246000fd5b600061204b82611a76565b915061205683611a76565b925082820261206481611a76565b9150828204841483151761207b5761207a612011565b5b5092915050565b7f4e487b7100000000000000000000000000000000000000000000000000000000600052601260045260246000fd5b60006120bc82611a76565b91506120c783611a76565b9250826120d7576120d6612082565b5b828204905092915050565b60006120ed82611a76565b91506120f883611a76565b92508282019050808211156121105761210f612011565b5b92915050565b600060408201905061212b6000830185611ef7565b6121386020830184611ef7565b9392505050565b600082825260208201905092915050565b7f41646472657373206d7573742062652072656769737465726564000000000000600082015250565b6000612186601a8361213f565b915061219182612150565b602082019050919050565b600060208201905081810360008301526121b581612179565b9050919050565b7f4c656e64696e673a2072656365697074206d7573742065786973740000000000600082015250565b60006121f2601b8361213f565b91506121fd826121bc565b602082019050919050565b60006020820190508181036000830152612221816121e5565b9050919050565b600060c08201905061223d6000830189611f21565b61224a6020830188611ef7565b6122576040830187611ef7565b6122646060830186611ef7565b6122716080830185611ef7565b61227e60a0830184611ef7565b979650505050505050565b600060408201905061229e6000830185611ef7565b6122ab6020830184611cc2565b9392505050565b6000815190506122c181611e68565b92915050565b6000602082840312156122dd576122dc611a71565b5b60006122eb848285016122b2565b91505092915050565b7f4c656e64696e673a2073656e646572206d7573742068617665204e4654000000600082015250565b600061232a601d8361213f565b9150612335826122f4565b602082019050919050565b600060208201905081810360008301526123598161231d565b9050919050565b60006060820190506123756000830186611cc2565b6123826020830185611f75565b61238f6040830184611ef7565b949350505050565b7f416c7265616479207265676973746f7200000000000000000000000000000000600082015250565b60006123cd60108361213f565b91506123d882612397565b602082019050919050565b600060208201905081810360008301526123fc816123c0565b9050919050565b7f4c656e64696e673a204d7573742062652056656e646f72000000000000000000600082015250565b600061243960178361213f565b915061244482612403565b602082019050919050565b600060208201905081810360008301526124688161242c565b9050919050565b7f4c656e64696e673a206f66666572206d75737420657869737400000000000000600082015250565b60006124a560198361213f565b91506124b08261246f565b602082019050919050565b600060208201905081810360008301526124d481612498565b9050919050565b60006060820190506124f06000830186611cc2565b6124fd6020830185611cc2565b61250a6040830184611ef7565b949350505050565b7f4f776e61626c653a206e6577206f776e657220697320746865207a65726f206160008201527f6464726573730000000000000000000000000000000000000000000000000000602082015250565b600061256e60268361213f565b915061257982612512565b604082019050919050565b6000602082019050818103600083015261259d81612561565b9050919050565b7f4f776e61626c653a2063616c6c6572206973206e6f7420746865206f776e6572600082015250565b60006125da60208361213f565b91506125e5826125a4565b602082019050919050565b60006020820190508181036000830152612609816125cd565b905091905056fea2646970667358221220ee2e194c3e824f840ee11dde7b45986d7a453951579a77b779aa71d9456b6d8764736f6c63430008110033608060405234801561001057600080fd5b5061002d61002261003260201b60201c565b61003a60201b60201c565b6100fe565b600033905090565b60008060009054906101000a900473ffffffffffffffffffffffffffffffffffffffff169050816000806101000a81548173ffffffffffffffffffffffffffffffffffffffff021916908373ffffffffffffffffffffffffffffffffffffffff1602179055508173ffffffffffffffffffffffffffffffffffffffff168173ffffffffffffffffffffffffffffffffffffffff167f8be0079c531659141344cd1fd0a4f28419497f9722a3daafe3b4186f6b6457e060405160405180910390a35050565b6109138061010d6000396000f3fe608060405234801561001057600080fd5b506004361061004c5760003560e01c8063715018a6146100515780638da5cb5b1461005b578063c1d2d00d14610079578063f2fde38b14610095575b600080fd5b6100596100b1565b005b6100636100c5565b6040516100709190610444565b60405180910390f35b610093600480360381019061008e91906104d0565b6100ee565b005b6100af60048036038101906100aa9190610510565b610236565b005b6100b96102b9565b6100c36000610337565b565b60008060009054906101000a900473ffffffffffffffffffffffffffffffffffffffff16905090565b6100f66102b9565b600033905060008173ffffffffffffffffffffffffffffffffffffffff166312a1dc1d856040518263ffffffff1660e01b8152600401610136919061054c565b61012060405180830381865afa158015610154573d6000803e3d6000fd5b505050506040513d601f19601f820116820180604052508101906101789190610740565b90506000816040015190508073ffffffffffffffffffffffffffffffffffffffff166323b872dd308685606001516040518463ffffffff1660e01b81526004016101c49392919061076e565b600060405180830381600087803b1580156101de57600080fd5b505af11580156101f2573d6000803e3d6000fd5b505050507fc11b01f2a3c991d770c6779a695f6264d7189edc3e57260ec9a7f70a4474529585856040516102279291906107a5565b60405180910390a15050505050565b61023e6102b9565b600073ffffffffffffffffffffffffffffffffffffffff168173ffffffffffffffffffffffffffffffffffffffff16036102ad576040517f08c379a00000000000000000000000000000000000000000000000000000000081526004016102a490610851565b60405180910390fd5b6102b681610337565b50565b6102c16103fb565b73ffffffffffffffffffffffffffffffffffffffff166102df6100c5565b73ffffffffffffffffffffffffffffffffffffffff1614610335576040517f08c379a000000000000000000000000000000000000000000000000000000000815260040161032c906108bd565b60405180910390fd5b565b60008060009054906101000a900473ffffffffffffffffffffffffffffffffffffffff169050816000806101000a81548173ffffffffffffffffffffffffffffffffffffffff021916908373ffffffffffffffffffffffffffffffffffffffff1602179055508173ffffffffffffffffffffffffffffffffffffffff168173ffffffffffffffffffffffffffffffffffffffff167f8be0079c531659141344cd1fd0a4f28419497f9722a3daafe3b4186f6b6457e060405160405180910390a35050565b600033905090565b600073ffffffffffffffffffffffffffffffffffffffff82169050919050565b600061042e82610403565b9050919050565b61043e81610423565b82525050565b60006020820190506104596000830184610435565b92915050565b6000604051905090565b600080fd5b6000819050919050565b6104818161046e565b811461048c57600080fd5b50565b60008135905061049e81610478565b92915050565b6104ad81610423565b81146104b857600080fd5b50565b6000813590506104ca816104a4565b92915050565b600080604083850312156104e7576104e6610469565b5b60006104f58582860161048f565b9250506020610506858286016104bb565b9150509250929050565b60006020828403121561052657610525610469565b5b6000610534848285016104bb565b91505092915050565b6105468161046e565b82525050565b6000602082019050610561600083018461053d565b92915050565b600080fd5b6000601f19601f8301169050919050565b7f4e487b7100000000000000000000000000000000000000000000000000000000600052604160045260246000fd5b6105b58261056c565b810181811067ffffffffffffffff821117156105d4576105d361057d565b5b80604052505050565b60006105e761045f565b90506105f382826105ac565b919050565b600081519050610607816104a4565b92915050565b600061061882610423565b9050919050565b6106288161060d565b811461063357600080fd5b50565b6000815190506106458161061f565b92915050565b60008151905061065a81610478565b92915050565b6000610120828403121561067757610676610567565b5b6106826101206105dd565b90506000610692848285016105f8565b60008301525060206106a6848285016105f8565b60208301525060406106ba84828501610636565b60408301525060606106ce8482850161064b565b60608301525060806106e28482850161064b565b60808301525060a06106f68482850161064b565b60a08301525060c061070a8482850161064b565b60c08301525060e061071e8482850161064b565b60e0830152506101006107338482850161064b565b6101008301525092915050565b6000610120828403121561075757610756610469565b5b600061076584828501610660565b91505092915050565b60006060820190506107836000830186610435565b6107906020830185610435565b61079d604083018461053d565b949350505050565b60006040820190506107ba600083018561053d565b6107c76020830184610435565b9392505050565b600082825260208201905092915050565b7f4f776e61626c653a206e6577206f776e657220697320746865207a65726f206160008201527f6464726573730000000000000000000000000000000000000000000000000000602082015250565b600061083b6026836107ce565b9150610846826107df565b604082019050919050565b6000602082019050818103600083015261086a8161082e565b9050919050565b7f4f776e61626c653a2063616c6c6572206973206e6f7420746865206f776e6572600082015250565b60006108a76020836107ce565b91506108b282610871565b602082019050919050565b600060208201905081810360008301526108d68161089a565b905091905056fea2646970667358221220e192c77492c24b6ce980c6c40b1415e540341899f5996e6822be25dcada3fd5e64736f6c63430008110033",
  "linkReferences": {},
  "deployedLinkReferences": {}
}